:020000040800F2
:10000000300A00204501000845120008690B00086D
:1000100041120008C9090008C120000800000000C2
:100020000000000000000000000000003919000876
:10003000610A00080000000029130008751B000871
:10004000C52000085F0100085F0100085F0100088B
:100050005F0100085F0100085F0100085F01000800
:100060005F0100085F0100085F0100085F010008F0
:100070005F0100085F0100085F0100085F010008E0
:100080005F0100085F0100085F0100085F010008D0
:100090005F0100085F0100085F0100085F010008C0
:1000A0005F0100085F0100085F0100085F010008B0
:1000B000D91B0008F11B0008211C00085F01000883
:1000C0005F0100085F0100085F0100085F01000890
:1000D0005F010008591C0008251E00085F01000888
:1000E0005F0100085F0100085F0100085F01000870
:1000F0005F0100085F0100085F0100085F01000860
:100100005F0100085F0100085F0100085F0100084F
:100110005F0100085F0100085F0100085F0100083F
:100120005F0100085F0100085F0100085F0100082F
:10013000DFF80CD000F0B0FB004800476D2A000843
:10014000300A00200648804706480047FEE7FEE7E1
:10015000FEE7FEE7FEE7FEE7FEE7FEE7FEE7FEE777
:10016000791B00083101000840EA01039B0703D016
:1001700009E008C9121F08C0042AFAD203E011F8E6
:10018000013B00F8013B521EF9D27047D2B201E0A8
:1001900000F8012B491EFBD270470022F6E710B58C
:1001A00013460A4604461946FFF7F0FF204610BDE5
:1001B000F0B480EA0102D40F4200B2EB410F02D248
:1001C0000246084611464A0042D0C30DDDB2C1F3D3
:1001D000C752AD1A202D35DAC1F3160141F40002E1
:1001E00004B15242C5F1200602FA06F12A41104438
:1001F000B3EBD05F23D0C4B1012DA0EBC35009DC19
:10020000F0BC4FF0004202EAC352DBB200F500003E
:1002100000F06EB9400000F1807000EBC350A0F117
:10022000807040EAD170490009E0490841EAC07194
:10023000A0EBC35000F50000400800EBC350F0BC39
:1002400000F04DB96142012202EB4101001BF6E7CB
:10025000F0BC704781F00041AAE780F00040A7E7BA
:1002600080EA010210B502F00043400022D04A00AB
:100270001FD0010E01EB1261C0F35600C2F356020B
:1002800040F4000042F40002A0FB022000047F3989
:10029000140400D0401C50EA124001D44000491E12
:1002A000C2B20C0604EBD010401C4008802A02D0D9
:1002B00003E0002010BD20F00100002900DA00203A
:1002C000184310BD30B480EA010202F0004530F05E
:1002D000004221F0004013D090B1C30DD40DC2F301
:1002E0001601C0F31600E41A41F4000140F40002C4
:1002F0007D34914201D3641C00E04900002C02DAF5
:1003000030BC002070474FF400000023914201D31D
:10031000891A034340084FEA4101F7D151B1914294
:1003200002D14FF0004105E002D24FF0010101E09F
:100330006FF0010103EBC450284430BC00F0CFB88B
:100340002DE9F04D81EA030404F0004B21F0004553
:1003500014464FF0000A23F0004150EA050220D075
:1003600054EA01021DD0C5F30A570246C5F3130330
:10037000C1F31300C1F30A5640F4801543F480130F
:10038000A7EB0608101BD64608F2FD3873EB0500F4
:1003900002D308F1010801E092185B41B8F1000FA7
:1003A00003DA00200146BDE8F08D00204FF48011F3
:1003B000064684460EE0171B73EB050705D3121B98
:1003C00063EB050306434CEA010C49084FEA300091
:1003D00092185B4150EA0107EDD152EA030012D0B6
:1003E00082EA040083EA0501084305D0101BAB41F3
:1003F00006D20122002306E000224FF0004302E073
:100400006FF0010253101AEB06004CEB085110EB91
:100410000A0041EB0B01BDE8F04D00F097B89623C0
:100420000022114600F064B820F00040C10DC0F376
:10043000160040F400007F2901DA00207047962959
:1004400003DCC1F19601C840704796398840704777
:1004500030B50B46014600202022012409E021FA94
:1004600002F59D4205D303FA02F5491B04FA02F591
:100470002844151EA2F10102F1DC30BD2DE9F05F28
:100480000546002092469B46884606468146402403
:100490001BE0284641464746224600F01EFA5346D6
:1004A0005A46C01A914110D311461846224600F010
:1004B00005FA2D1A67EB01084F462246012000215C
:1004C00000F0FCF917EB00094E41201EA4F10104D5
:1004D000DFDC484631462A464346BDE8F09F002906
:1004E000A8BF7047401C490008BF20F001007047BA
:1004F00010B4B0FA80FC00FA0CF050EA010404BF1A
:1005000010BC704749B1CCF1200421FA04F411FA6F
:100510000CF118BF012121430843A3EB0C01CB1DB3
:100520004FEA00614FEA102042BF002010BC704724
:1005300000EBC35010440029A4BF10BC7047401CFE
:10054000490008BF20F0010010BC704710B5141E10
:1005500073F1000408DA401C41F1000192185B417C
:100560001A4301D120F0010010BD2DE9F04D924653
:100570009B4611B1B1FA81F202E0B0FA80F220326A
:10058000904600F09BF904460F4640EA0A0041EA13
:100590000B0153465A46084313D0114653EA010053
:1005A00019D0C8F14002504600F097F905460E46B2
:1005B00050465946424600F081F9084305D00120D3
:1005C00004E020463946BDE8F08D0020054346EAA8
:1005D000E0762C4337430A986305E40AA0EB080051
:1005E0000022FD0A44EA47540A3002D500200146A1
:1005F000E9E7010510196941DDE90845001969417C
:10060000BDE8F04DA2E72DE9FE4F804681EA0300E8
:10061000C00F0C46009021F0004123F00045B8EBDC
:100620000200A94105D24046214690461C460B4691
:10063000024623F00040104347D0270DC7F30A00BD
:10064000C3F30A510290401A019040286BDAC3F3B9
:10065000130040F4801B0098924620B10023D2EB97
:10066000030A63EB0B0B01985946C0F14002504658
:1006700000F024F906460D4650465946019A00F00E
:100680003CF910EB08006141002487EA115284EA2A
:10069000E7731A4340D0009A62B3019A012A4FEAE5
:1006A000075215DC001B61EB02014FF0004202EA29
:1006B0000752CDE90042001C41F5801132462B461D
:1006C000FFF753FF03B0BDE8F08F40462146F9E73E
:1006D000001B61EB0201001C41F5801300185B4117
:1006E0002018A2F5001747EB030140EAD570B619B0
:1006F0006D4111E06D084FEA360645EAC0754FEAD4
:100700000752001B61EB0201001C41F580114908F2
:100710004FEA30000019514132462B4603B0BDE884
:10072000F04FFFF713BF0098012240000023D0EBE9
:10073000020263EBE073009821464FEAE074B8EBE5
:10074000000061EB0401E9E783F000435BE781F01F
:10075000004158E72DE9FE4F81EA030404F000440C
:1007600021F0004100944FF0000B23F0004350EAC9
:1007700001045ED052EA03045BD0C3F30A54C1F310
:100780000A552C44A4F2F3340194A0FB0254C1F3A3
:10079000130141F48011C3F3130343F4801301FBED
:1007A000024400FB034E840A970A44EA815447EA54
:1007B0008357A4FB076802958D0A05FB07854FEA5E
:1007C000932C04FB0C542705029D4FEA065847EA78
:1007D0001637B5EB08056EEB070C870E920E47EA4D
:1007E000811742EA8312A7FB0201B6EB0B0164EB0F
:1007F00000042B0D43EA0C335E1844EB1C50DA4620
:100800005146E7FB0201C5F313044FEA0B3343EAF9
:1008100014534FEA0432019C43EA0603A4F10C048A
:100820000294009CCDE900B4FFF79FFE03B0BDE841
:10083000F08F00200146F9E7C1F30A52C1F313011A
:1008400040F2FF3341F480119A4202DA002001465F
:10085000704740F233439A42A2F2334202DC5242E2
:1008600000F03BB800F02AB830B5041E71F1000466
:1008700004DB4FF00044404264EB0101141E73F1AD
:10088000000405DB1C464FF00043524263EB0403B7
:10089000994208BF904230BD064C074D06E0E06823
:1008A00040F0010394E8070098471034AC42F6D3B7
:1008B000FFF742FC1C2E00083C2E0008202A04DB17
:1008C000203A00FA02F1002070479140C2F1200363
:1008D00020FA03F3194390407047202A04DB203AA2
:1008E00021FA02F00021704721FA02F3D040C2F150
:1008F00020029140084319467047202A06DBCB1797
:10090000203A41FA02F043EAE07306E041FA02F3CA
:10091000D040C2F1200291400843194670470000C0
:1009200030B587B0182220A101A8FFF71DFC0024D4
:1009300006E0A01D2249095C01AA1154601CC4B242
:10094000062CF6DB1F48007EB0B91E48407E98B9E1
:100950001C48C07C8DF810001A48007D8DF81100ED
:100960001848807D8DF813001648C07D8DF814005E
:100970001448007E8DF81500132101A800F0A8F896
:100980000546E8B28DF81700280A8DF818000024F3
:1009900005E001A9085D01F059FB601CC4B2162CEA
:1009A000F7DB07B030BD00003C3C3C5A3000100083
:1009B00000000000120004020000001347ED0000D8
:1009C0005C0000208202002000BFFEE710B500207E
:1009D00003490880C8210348FFF7DFFB10BD000072
:1009E0000A0000208202002010B500200349088080
:1009F000C8210348FFF7D1FB10BD00000A0000200A
:100A00008202002010B51548C07D30B1022813D0F5
:100A1000062805D007281ED111E0FFF781FF1AE054
:100A20000E48007E08B9FFF77BFF0C48007E0128C6
:100A300001D100F089FB0EE000F098F80BE00748C8
:100A4000007E08B9FFF76CFF0448007E012801D141
:100A500000F07AFB00BF00BF10BD00008202002042
:100A600070470146002005E0002000E0401CB0F582
:100A7000FA5FFBD30A1EA1F1010399B2F4D17047CA
:100A800010B5012004490870AFF20B0241F2883121
:100A9000002002F015F910BD1900002010B54FF428
:100AA0007F7000F03FFD00BF40F2FB3000F03AFDE8
:100AB00004460120054908704FF47A7004FB00F1E8
:100AC000AFF22702032002F0FBF810BD1A0000204D
:100AD00030B502460B464FF6FF7011E014786040C7
:100AE00000210AE000F0010424B14AF2010484EA82
:100AF000600000E040104C1CE1B20829F2DB521CFF
:100B00001C1EA3F10105ABB2E8D130BD30B585B0F4
:100B1000142213496846FFF727FB124800788DF826
:100B2000040010480078401C0E49087011216846E6
:100B3000FFF7CEFF0546E8B28DF81100280A8DF8C0
:100B40001200ED208DF81300002405E01DF80400CC
:100B500001F07CFA601CC4B2142CF7DB05B030BD88
:100B6000082E00083E00002000BFFEE710B586B04A
:100B7000002407E004F113000949085C01A90855A5
:100B8000601CC4B20648407DC01CA042F2DC044890
:100B9000407DC01CC1B201A800F0D0FE06B010BD5F
:100BA000820200201CB517A103C9CDE90001174836
:100BB000407C98B91548817C40F2FB3002F0C0F8C7
:100BC0000A20FFF74EFF1148C17C4FF47F7002F0FE
:100BD000B7F80821684600F0B1FE12E040F2FB30A1
:100BE00000F0A0FC8DF806004FF47F7000F09AFC36
:100BF0008DF8070001208DF805000821684600F0F7
:100C00009DFE1CBD01000501030000005C000020EA
:100C100010B52148006820F080101F490860084680
:100C2000006840F4000008600A2001F0BAFE1A488B
:100C30001038006820F070601749103908600846C5
:100C4000006840F0E06008601348006820F0401041
:100C5000114908600846006840F4800008600A20D6
:100C600001F09FFE0C48006820F080100A490860DF
:100C70000846006840F0800008600A2001F091FEFC
:100C80000548006820F080100349086008460068A5
:100C900040F40000086010BD100C014010B5204861
:100CA000006820F080101E4908600846006840F483
:100CB000000008601A481038006820F07060184979
:100CC000103908600846006840F0E0600860144889
:100CD000006820F04010124908600846006840F0A3
:100CE000400008600A2001F05CFE0D48006820F01A
:100CF00080100B4908600846006840F080000860DA
:100D00000A2001F04EFE0648006820F080100449D9
:100D100008600846006840F40000086010BD00004C
:100D2000100C014070B5054600242548006820F0ED
:100D30007060234908600846006840F00060086061
:100D40000A2001F02EFE00262FE01D48103000681A
:100D500020F080101A49103108600846006840F4FD
:100D6000000008600A2001F01CFE6006040E144812
:100D70001030006820F080101149103108600846DA
:100D8000006840F0800008600D480830006800F0FE
:100D90004000402802D144F0010401E004F0FE04C8
:100DA0000A2001F0FEFD701CC6B2082ECDDB15B97D
:100DB000FFF774FF01E0FFF72BFF204670BD000036
:100DC000000C014070B504463148006820F07060A6
:100DD0002F4908600846006840F0E0600860002580
:100DE00043E02B481030006820F080102849103173
:100DF00008600846006840F4000008600A2001F01E
:100E0000D0FDE6096EB922481030006820F040108D
:100E10001F49103108600846006840F480000860EF
:100E20000CE01B481030006820F0401018491031C9
:100E300008600846006840F0400008600A2001F0A1
:100E4000B0FD13481030006820F0801010491031B8
:100E500008600846006840F0800008600A2001F041
:100E6000A0FD6006040E681CC5B2082DB9DB084859
:100E70001030006820F080100549103108600846E5
:100E8000006840F4000008600A2001F08AFD70BD8F
:100E9000000C014010B52448006820F07060224921
:100EA00008600846006840F0E06008601E481030A6
:100EB000006820F040101C491031086008460068A6
:100EC00040F040000860042001F06BFD164810302F
:100ED000006820F08010144910310860084600684E
:100EE00040F0800008600A2001F05BFD0E481030E1
:100EF000006820F040100C49103108600846006876
:100F000040F4800008600A2001F04BFD06481030D4
:100F1000006820F08010044910310860084600681D
:100F200040F40000086010BD000C014010B51E48E0
:100F3000006820F070601C4908600846006840F0B6
:100F4000E060086018481030006820F04010164932
:100F5000103108600846006840F4800008600A20EC
:100F600001F01FFD10481030006820F080100E497D
:100F7000103108600846006840F0800008600A20D0
:100F800001F00FFD08481030006820F040100649BD
:100F9000103108600846006840F0400008600A20F0
:100FA00001F0FFFC10BD0000000C014010B5002452
:100FB000012001F0F6FC2448006820F0706022490E
:100FC00008600846006840F0006008601E48103065
:100FD000006820F080101C49103108600846006845
:100FE00040F4000008600A2001F0DBFC16481030D5
:100FF000006820F08010144910310860084600682D
:1010000040F0800008600A2001F0CBFC0E48103050
:10101000006820F080100C49103108600846006814
:1010200040F400000860052001F0BBFC06480830D1
:10103000006800F0400008B9012400E000240A2004
:1010400001F0AFFC204610BD000C014010B500249B
:10105000012001F0A6FC2648006820F04010244939
:1010600008600846006840F04000086020481038DA
:10107000006820F070601E4910390860084600685A
:1010800040F0006008601A48006820F0801018499D
:1010900008600846006840F4000008600A2001F07B
:1010A00080FC1348006820F0801011490860084651
:1010B000006840F0800008600A2001F072FC0C48D3
:1010C0000838006800F0400008B9012400E000245E
:1010D0000748006820F0801005490860084600684D
:1010E00040F4000008600A2001F05BFC204610BDBF
:1010F000100C01401148006840F080504FF0E02192
:10110000C1F8000110210E4801700E48C06940F07E
:1011100001000C49C86100208904888447200885A3
:101120004FF47A708885C006808940F0010088817C
:101130000846008840F001000880704700E100E0A8
:101140001CE400E00010024030B58DB01A2106A862
:10115000FFF723F8182223496846FFF705F8002413
:1011600006E0A01D2049095C0DF80010601CC4B207
:10117000062CF6DB002408E004F113001B49095C8F
:10118000C01F0DF80010601CC4B21848407DC01C80
:10119000A042F1DC04F10D016846FFF799FC054619
:1011A000E9B204F10C000DF80010601CC4B2290A69
:1011B00004F10C000DF80010601CC4B2ED2104F124
:1011C0000C000DF80010002405E01DF8040000F0EC
:1011D0003DFF601CC4B20548407D1230A042F4DCE3
:1011E0000DB030BDF02D00085C0000208202002010
:1011F0003EB50FA207CA8DE80700002000F062F993
:1012000000240DE0032C01D1012507E0C4F1060004
:101210000A49095CA01D401B0DF80010601CC4B2F7
:10122000062CEFDB00250B21684600F087FB3EBD56
:101230000100080104011707131122004A000020D1
:1012400000BFFEE770470000F0B58DB006460D46C2
:101250001E2105A8FEF7A1FF14222E496846FEF7BD
:1012600083FF0027002406E0315D04F113000DF830
:101270000010601CC4B2AC42F6DB274800788DF841
:10128000040005F10B00C0B28DF80600042405E04F
:101290001DF804003844C7B2601CC4B205F1130045
:1012A0008442F5DB0DF80070E921401C0DF80010B8
:1012B000401C1A490880002405E01DF80400184964
:1012C0000855601CC4B2154800888442F5DB002430
:1012D00008E01349085D00F0E5FE0520FFF7C1FBBB
:1012E000601CC4B205F115008442F2DB0A480078A4
:1012F000401C09490870084600786F2801DB60200F
:1013000008700020054908800648002101800DB0C2
:10131000F0BD0000D02D00083B0000200A00002096
:101320004A03002082020020704700002DE9F047A8
:1013300088B00027B9461C225AA101A8FEF714FF65
:10134000002406E0A01D5E49095C01AA1154601C3E
:10135000C4B2062CF6DB5A48C07B022865D1584837
:10136000407B002862D15648007B00285ED140F2C5
:10137000FD3000F0D7F88046002454E000264CE011
:1013800004EB440106EB410000F0CCF8FF2806D145
:10139000601EC4B209F1010000F0FF093FE004EB58
:1013A000440106EB410000F0BDF806F11201444A89
:1013B000515C081A3844C7B207B130E05FBB052E54
:1013C00029D104EB0900851CE8B28DF81000280A29
:1013D0008DF81100002407E004F112003849095C7F
:1013E00001AA1154601CC4B2062CF5DB182101A817
:1013F000FFF76EFB0546E8B28DF81C00280A8DF851
:101400001D00002405E001A9085D00F01FFE601C1E
:10141000C4B21B2CF7DB701CC6B2062EB0DB00BFBB
:101420000027601CC4B24445A8DB38E0244890F88B
:101430000DA04FF6FF7000EA0A2A214890F80CA090
:10144000007B8DF810001E48407B8DF811000024B1
:101450000EE0AAF1020101EB410104EB410188B267
:1014600000F060F804F1120101AA5054601CC4B2EB
:10147000062CEEDB182101A8FFF72AFB0546E8B28F
:101480008DF81C00280A8DF81D00002405E001A934
:10149000085D00F0DBFD601CC4B21B2CF7DB08B05C
:1014A000BDE8F0873C3C3C5A3000100000000000D2
:1014B0000000090200011000000000000000ED0023
:1014C0005C00002070B50546FFF7E4FCD020FFF774
:1014D00079FC00BFFFF76AFD0028FBD12846FFF723
:1014E00071FC00BFFFF762FD0028FBD1FFF71EFD76
:1014F000FFF7D0FCD120FFF765FC00BFFFF756FDDA
:101500000028FBD0002406E00120FFF70BFC044973
:101510000855601CC4B2072CF6DDFFF707FD70BD4F
:101520004A00002070B50446FFF7B4FCA220FFF784
:1015300049FC00BFFFF78AFD0028FBD02012FFF70F
:1015400041FC00BFFFF782FD0028FBD0E0B2FFF7AF
:1015500039FC00BFFFF77AFD0028FBD0FFF79AFCAB
:10156000A320FFF72FFC00BFFFF770FD0028FBD082
:101570000020FFF7D7FB0546FFF7D8FC284670BDD3
:101580002DE9F04188B000274848C07B01283CD1B4
:101590004648017B40F2FE3001F0D2FB0A20FFF703
:1015A00060FA4248417B40F2FF3001F0C9FB002461
:1015B00005E03E48005D02A90855601CC4B23C48E5
:1015C0000088C01EA042F4DC002002A908550420B7
:1015D0008DF81600132102A8FFF77AFA0646F0B23A
:1015E0008DF81B00300A8DF81C00ED208DF81D00D1
:1015F0006420FFF736FA002405E002A9085D00F038
:1016000025FD601CC4B2162CF7DB2848C07B0228DD
:1016100048D10025254890F80D804FF6FF7000EA6C
:101620000828224890F80C8000BF11E005F1120252
:101630001E4B995CA8F1020202EB420205EB42024A
:1016400090B201F07DFB0A20FFF70BFA681CC5B2CF
:10165000062DEBDB40F2FD30FFF764FF0746781CF8
:10166000C7B20A20FFF7FDF9394640F2FD3001F01C
:1016700067FB002507E005F112000C49085C0DF836
:101680000500681CC5B2062DF5DB0848007B8DF807
:1016900006000648407B8DF8070008216846FFF7E2
:1016A000D3FD00BF08B0BDE8F08100005C00002061
:1016B0000000002070B50E480078012816D140F2D5
:1016C000FE30FFF72FFF054640F2FF30FFF72AFFFD
:1016D0000446FF2D04D1FF2C02D1FFF717FA02E0D8
:1016E000002001F0E3FA00200149087070BD0000FD
:1016F0001900002070B586B00024182227A1684682
:10170000FEF732FD00BF06E0A01D2A49095C0DF876
:101710000010601CC4B2062CF6DB2648467B4FF650
:10172000FF7000EA06262348067BC07B02282FD1E3
:1017300000240DE0B11E01EB410104EB410188B230
:10174000FF2101F0FDFA0A20FFF78BF9601CC4B2FB
:10175000062CEFDB1748007B8DF80C001548407B0A
:101760008DF80D0040F2FD30FFF7DCFE0546681EE7
:1017700085B2E9B240F2FD3001F0E2FA002405E062
:101780001DF8040000F062FC601CC4B2152CF7DBED
:1017900001200949087006B070BD00003C3C3C5A6D
:1017A00030001000000000001200040200021227A6
:1017B000ED0000005C000020390000202DE9F04120
:1017C00000264048477A867A007B3F490870172FE9
:1017D0006FD11F2E42DD3D480078BA2100FB01F495
:1017E0000CE004F10D0039490978BA2202FB11001E
:1017F0003449085C36490855601C84B23348007887
:10180000BA2148433049097801EB410100EB41001E
:10181000A042E6DC2D480078401C2C4908701F20AF
:1018200096FBF0F00978884202DA00202749087018
:10183000002505E02648405D26494855681C85B2CC
:10184000A542F7DB062094FBF0F0234908802348EB
:1018500004802049087800F0F9FB2AE000240CE01D
:10186000184904F10D00085C194908550846015D46
:101870001BA000F02DFC601C84B21348007800EB24
:101880004000B4EB400FEBDB002505E01048405D65
:1018900010494855681C85B2A542F7DB062094FB29
:1018A000F0F00D4908800D4804800A49087800F0DE
:1018B000CDFB00200B490880C8210248FEF76DFCD3
:1018C000BDE8F08182020020170000203A000020CD
:1018D00076040020240100201C00002002000020CB
:1018E00025782C000A00002070B5104800780128E7
:1018F0001AD140F2FE30FFF715FE054640F2FF30E8
:10190000FFF710FE044600200849087008480078D8
:10191000012809D10870074A42F21071032001F032
:10192000CFF900200249087070BD00001A000020A5
:101930003D0000209D0A000870470000F0B58DB002
:1019400007460D46262103A8FEF727FC1E4AD2E9CA
:1019500000109268CDE901020091002406E0A01D6C
:101960001A49095C0DF80010601CC4B2062CF6DBA5
:10197000002406E0395D04F10C000DF80010601C35
:10198000C4B2AC42F6DB05F10C016846FFF7A0F8E3
:101990000646F1B205F10C000DF80010310A401CAA
:1019A0000DF80010ED21401C0DF80010002405E09A
:1019B0001DF8040000F04AFB601CC4B205F10F00E2
:1019C000A042F5DC0DB0F0BDE42D00085C00002065
:1019D00010B586B0002407E004F10C000949085C4A
:1019E00001A90855601CC4B20648807BC01CA042F7
:1019F000F2DC0448807BC01CC1B201A8FFF724FCC4
:101A000006B010BD5C00002010B500F001F810BD5C
:101A10000CB50020019000903348006840F48030FD
:101A20003149086000BF3048006800F40030009081
:101A30000198401C0190009818B90198B0F5A06F6A
:101A4000F1D12948006800F4003010B10120009065
:101A500001E0002000900098012843D1234800684D
:101A600040F01000214908600846006820F003009B
:101A700008600846006840F0020008601A484068A4
:101A8000194948600846406848600846406840F484
:101A9000806048600846406820F47C104860084632
:101AA000406840F4E81048600846006840F08070E4
:101AB000086000BF0C48006800F000700028F9D0F2
:101AC0000948406820F0030007494860084640681C
:101AD00040F00200486000BF0348406800F00C007E
:101AE0000828F9D10CBD000000100240002002407F
:101AF00070B50546002406E02978E0B201F048F907
:101B0000601CC4B26D1C072CF6DD70BD7FB514A13E
:101B100003C9CDE9020114A103C9CDE900010024E4
:101B200013E0032C06D10320C4F106010DF80100D7
:101B3000012508E004F11200401B0D49085CC4F1C6
:101B400006010DF80100601CC4B2062CE9DB00257B
:101B50006846FFF7CDFF082102A8FFF7EFFE7FBD23
:101B600001000501040000000027180204071713F4
:101B70005C0000207047000010B51348006840F07A
:101B800001001149086008464068104908400E49A4
:101B90004860084600680E4908400B49086008463E
:101BA000006820F4802008600846406820F4FE00A9
:101BB00048604FF41F008860FFF726FF4FF0006079
:101BC0000449086010BD0000001002400000FFF84A
:101BD000FFFFF6FE08ED00E010B54FF08040008AF0
:101BE00020F001004FF08041088201F073F810BD31
:101BF0000848008800F0010058B10120064908702B
:101C00000020064908700348008820F001000149BF
:101C1000088070471004004052000020540000204B
:101C20000A48008800F0010070B1094800780128D6
:101C300004D108490870002005490870034800884D
:101C400020F00100014908807047000010080040A2
:101C5000550000205300002010B52448008800F0F3
:101C60002000C0B12248007888B92048001D0088B3
:101C70002049214A128888541F480088401C1E4968
:101C800008801E4A6421012001F01AF803E0174879
:101C9000001D0088C4B21548008800F0400020B341
:101CA0001748007808B3174817490988405C0F495E
:101CB000091D088014480088401C13490880084604
:101CC00000881249098888420FDB08480C300088D8
:101CD00020F0400005490C31088001200A490880A5
:101CE0000020074908700949088010BD00380140EC
:101CF000060000205C00002000000020111E0008EB
:101D00000700002024010020040000200200002021
:101D1000064800680649084004490860084600680B
:101D20000449084301490860704700000CED00E0D9
:101D3000FFF8FA050004FA052DE9F041002500241A
:101D4000002600272F4840782E49097840EA0125CF
:101D50002C48807840EA05242A48C07840EA0424C8
:101D600029480088401E27490E5C2848844240D1FB
:101D7000ED2E3ED124480088401E81B22148FEF756
:101D8000A7FE0746002F34D11E48007C88B91D48A5
:101D9000407C20B1012805D0022809D105E0FFF7D9
:101DA000EFFB05E0FFF7C2FA02E0FFF7A3FC00BF7C
:101DB00000BF1448007C072807D01248007C062882
:101DC00003D01048007C052801D1FFF701FE0D4823
:101DD000007C032801D1FEF7E5FE0A48007C0428B8
:101DE00007D10848407C10B9FFF790FE01E0FFF7EB
:101DF000FFF9002004490880024800210160BDE885
:101E0000F08100005C000020000000205A3C3C3CB7
:101E100010B501200249087000F048FF10BD000015
:101E20000600002070B50F48008800F02000C0B107
:101E30000D48007890B90B48001D0088C4B20B48CB
:101E40000B49098844540A480088401C0849088006
:101E5000084A6421022000F033FF02E001480088B4
:101E6000C5B270BD0044004008000020820200207E
:101E70000A000020E51F00080B4800680B490840D5
:101E8000094908600846006809490843064908608E
:101E90000848006840F040004FF0E021C1F804011C
:101EA00030210548017070470CED00E0FFF8FA059D
:101EB0000004FA0504E100E026E400E02DE9F04129
:101EC0000025002600240027A046404840783F49CE
:101ED000097840EA01253D48807840EA05263B48DC
:101EE000C07840EA06263948807A394908704EF6AB
:101EF0001700854211D1022405E03448005D3844C2
:101F0000C7B2601CC4B233480088801EA042F4DC13
:101F10002E48807800F0C00813E02F48864210D188
:101F2000042405E02948005D3844C7B2601CC4B2EF
:101F300028480088801EA042F4DC2448007900F084
:101F4000C0084EF61700854202D02348864233D19E
:101F500020480088401E1D49085CE9282CD11D48F6
:101F60000088801E085CB84226D1B8F1000F09D065
:101F7000B8F1400F0CD0B8F1800F19D0B8F1C00FF4
:101F800019D102E0FEF722FD15E0FFF717FC12E081
:101F9000FEF738FD012011490870114A42F2107114
:101FA000032000F08DFE40F6C410FEF75AFD02E05B
:101FB000FEF71AFD00BF00BF002006490880C821B7
:101FC0000248FEF7EAF8BDE8F08100008202002036
:101FD000180000200A00002017E8E8E81A00002096
:101FE0009D0A000810B5012002490870022000F087
:101FF0005DFE10BD0800002070B512480078012871
:102000001ED140F2FE30FFF78DFA054640F2FF3058
:10201000FFF788FA0446FF2D03D0FF2C01D0FFF70D
:102020008BFE0948C07B012807D10748007C20B9F6
:102030000548407C08B9FFF77FFE00200149087081
:1020400070BD0000060000205C000020064A1288D7
:10205000D1B2054A121D108000BF034A128802F057
:102060004002002AF9D070470038014070B50C4892
:102070000078012812D140F2FE30FFF753FA0546EE
:1020800040F2FF30FFF74EFA0446FF2D03D0FF2C3D
:1020900001D0FFF713FF00200149087070BD000058
:1020A000080000200449088000BF0449098801F0A5
:1020B00040010029F9D07047044400400038014035
:1020C00000BFFEE70020014908607047082C00406F
:1020D0000FB4054B10B503A9044A029800F0CAF8E2
:1020E00010BC5DF814FB0000152A00085800002001
:1020F00002E008C8121F08C1002AFAD170477047D1
:10210000002001E001C1121F002AFBD1704700002E
:102110002DE9FF5FDDE90220010DDDF838B0024353
:1021200018D044F61050A1F2FF3141430D140F981E
:10213000012820D0A5EB0B00401C5FEA000A4FF0FD
:102140000004474EDFF81C91A046504616D5CAF150
:10215000000728E00F98012443A2012808D000219D
:1021600000980F9BC0E90021C0E90243BDE8FF9F32
:102170006FEA0B01F4E7CBF10000DEE7074612E05F
:10218000F80707D02246334640464946FEF7E2FAB2
:10219000804689462246334610461946FEF7DAFA4B
:1021A00004460E467F10002FEAD1DDE90201BAF1A4
:1021B000000F42464B4602DAFEF7CCFA01E0FEF78A
:1021C000BFF804460E460022284BFEF74DFB03D80D
:1021D0004FF0FF30014607E00022254B20463146F4
:1021E000FEF711FAFEF728FB102409E0002C0ADBA9
:1021F0000A220023FEF742F9019B30321A55641E71
:1022000050EA0102F2D1641C019AC4F11103144492
:102210000F9A012A03D0012208430DD10AE0084396
:1022200004D000204FF0110B0F9080E7A3EB0B05BB
:102230006D1E0DE05B4504DD4FF0000205F1010568
:1022400004E003DA4FF00002A5F10105002AECD00A
:1022500000980F99C0E90231C0E9004586E7000007
:10226000000024400000F03F300000000000F04378
:102270000000E03F2DE9FF4F95B09B46894606469A
:1022800000250FE2252877D100242746F84A0121AE
:10229000059400E0044316F8013F203B01FA03F0E7
:1022A0001042F7D130782A2811D06FF02F03307800
:1022B000A0F13002092A16D8059A44F0020402EB74
:1022C000820203EB42021044761C0590EFE759F8B6
:1022D000042B0592002A03DA504244F4005405907E
:1022E00044F00204761C30782E2816D116F8010F1F
:1022F00044F004042A280DD06FF02F023078A0F1AA
:102300003003092B09D807EB870302EB4303C718F7
:10231000761CF3E759F8047B761C30786C280FD0D4
:1023200006DC4C2817D068280DD06A2814D104E0A8
:10233000742810D07A280FD10DE044F400140AE07C
:1023400044F4801401E044F440147278824202D1D3
:1023500004F58014761C761C307866280BD013DCCC
:10236000582877D009DC002875D04528F6D04628B3
:10237000F4D047281AD19DE118E0632835D06428AD
:1023800079D0652812D195E1702873D008DC6728D0
:10239000F1D069286FD06E280DD06F2806D1B5E036
:1023A00073282CD0752875D0782874D05A46179980
:1023B00090476D1C75E1C4F30250022809D0032830
:1023C0000DD0D9F8001004280DD00D6009F10409D2
:1023D00067E1D9F80010EA17C1E90052F6E7D9F829
:1023E00000100D80F2E70D70F0E719F8041B8DF86E
:1023F000001000208DF80100EA46012003E059F8A2
:1024000004AB4FF0FF3061074FF0000102D40DE044
:1024100008F101018846B9420FDA8045F8DB1AF865
:1024200008100029F4D108E008F101018846814232
:10243000FADB1AF808100029F6D105985B46A0EBE4
:10244000080721463846179A00F094FA284400EB12
:10245000080507E04DE029E10DE01AF8010B5A46A6
:1024600017999047B8F10108F7D25B4621463846E4
:10247000179A13E142E00A220092C4F302524FF08D
:10248000000A022A08D059F804CB032A4FEAEC715B
:102490000AD00DE029E02AE009F1070121F0070246
:1024A000F2E802C1914609E00FFA8CFC4FEAEC71A8
:1024B000042A03D14FFA8CFC4FEAEC71002907DAA9
:1024C0000A460021DCF1000C61EB02012D2202E042
:1024D000220504D52B228DF80420012203E0E20717
:1024E00001D02022F7E7904659E00A2102E01022AD
:1024F0000DE010214FF0000A00910BE010224FF088
:10250000000A44F004040827009203E008224FF078
:10251000000A0092C4F30252022A05D059F804CBF3
:102520000021032A08D009E009F1070121F0070280
:10253000F2E802C1914605E01FFA8CFC042A01D1A1
:102540000CF0FF0C4FF00008220728D5702806D0A9
:10255000009B83F0100353EA0A0305D00EE04022EB
:102560008DF80420012208E05CEA010206D0302246
:102570008DF804208DF8050002229046009B83F020
:10258000080353EA0A030AD15CEA010201D1620797
:1025900005D530228DF804204FF001087F1E582801
:1025A00004D034A003900EA802900DE036A0F9E705
:1025B00053466046009AFDF761FF84460398825CAB
:1025C0000298401E029002705CEA0100F0D102986D
:1025D00006A9081A00F1200A600702D524F4803405
:1025E00000E00127574502DDA7EB0A0000E00020CC
:1025F00000EB0A01009005984144401A0590E00361
:1026000006D45B462146179A059800F0B3F90544B5
:10261000002706E001A85A46C05D179990476D1C37
:102620007F1C4745F6DBE0030CD55B462146179A35
:10263000059800F09FF9054404E030205A461799A8
:1026400090476D1C0099481E00900029F5DC08E0B9
:10265000029802995A460078491C029117999047AE
:102660006D1CBAF10001AAF1010AF1DC65E100007C
:102670000928010030313233343536373839616258
:10268000636465660000000030313233343536371C
:1026900038394142434445460000000000F058F9F3
:1026A0000544761C307800287FF4ECAD19B028463C
:1026B000BDE8F08F620700D4062709F1070222F077
:1026C000070CFCE80223E14603F000485FEA080C2F
:1026D00002D00FF2702C0DE05FEA045C02D50FF21D
:1026E000682C07E05FEAC47C02D00FF2602C01E0A6
:1026F000AFF2700C4FF0FF3823F00043CDF850C01C
:1027000065280CD006DC452809D046281DD047286E
:102710003DD13DE0662818D067287ED138E0002101
:10272000112F01DB112000E0781CCDE9000106A982
:102730000EA8FFF7EDFCDDE90F010E9A03910021D1
:10274000009207F1010A04914DE04FF0004000971C
:10275000CDE9011006A90EA8FFF7DAFCDDE90F02AA
:1027600003920E9B11990022DDF80CA000930492B5
:1027700011B9791C00EB010AB7EB0A0004D4C0F1CF
:10278000FF3007F1010A0490AAEB0700019044E032
:10279000012F00DA01270021112F01DD112000E0B7
:1027A0003846CDE9000106A90EA8FFF7B1FCDDE926
:1027B0000F010E9A0391002104910092BA4621075D
:1027C0000CD40399514500DA8A46BAF1010F05DDB0
:1027D000009AAAF10101515C302908D0B84202DA0E
:1027E00010F1040F06DA0121CDE9011015E0AAF17C
:1027F0000101E9E7002805DC049901440491AAEBF2
:10280000000102E0411C514500DD8A460499401A4E
:10281000401C01904FF000400290200704D4019822
:10282000504501DBCDF8048000208DF84F00029860
:102830000DF14F07B0F1004F25D02B200E900298DC
:102840004FF0020800280CDA404202902D200E9032
:1028500007E00A210298FDF7FBFD3031029007F8EE
:10286000011DB8F10001A8F10108F2DC029800286E
:10287000EFD1791E0E980870307800F0200040F0FB
:10288000450007F8020D12A8C01B00F107081498B4
:10289000007800B1012000EB0A01019801EBE07122
:1028A00005984144401A401E0590E00306D45B465B
:1028B0002146179A059800F05DF8054414980078B1
:1028C00018B15A46179990476D1CE00324D55B4612
:1028D0002146179A059800F04DF805441CE004982D
:1028E000002807DBDDE90301884203DD0098405C36
:1028F000179901E0179930205A469047049805F13E
:102900000105401C04900198401E019004D12E2026
:102910005A46179990476D1CBAF10001AAF1010AB5
:10292000DDDC05E017F8010B5A46179990476D1C3E
:10293000B8F10001A8F10108F4DC5B462146179AC2
:102940000598ABE62D0000002B00000020000000E1
:102950002DE9F041044600251E461746880404D49C
:1029600005E039462020B0476D1C641EF9D5284685
:10297000BDE8F0812DE9F041044600251E46904651
:10298000C80301D5302700E02027880404D505E0DE
:1029900041463846B0476D1C641EF9D52846BDE84F
:1029A000F081014601EBC1024FF0E0235A610022A1
:1029B0009A6101221A6100BF4FF0E022106900F015
:1029C00001021AB100F48032002AF5D000224FF043
:1029D000E0231A619A6170470C48806940F0080052
:1029E0000A4988610A48006820F4700008490860B4
:1029F0000846006840F44010086005481030006840
:102A000040F4001002491031086070470010024085
:102A1000000C014000BF054A128802F04002002A63
:102A2000F9D0C2B2014B1B1D1A807047003801401B
:102A30000C48806940F008000A4988610A4800682B
:102A400020F07F40084908600846006840F0EE40EA
:102A5000086005480C30006840F0C00002490C31A5
:102A60000860704700100240000C0140FFF784F836
:102A70004FF4FA70FDF7F5FF00F04EF94FF41651E0
:102A8000482000F02DF84FF49641482000F0A6F8B9
:102A9000FFF73EF9FFF7F0F90EA0FFF719FBFFF77C
:102AA000C7FFFFF799FF0C4A41F28831002000F080
:102AB00007F90A4A42F21071032000F001F907E019
:102AC000FEF7F8FDFEF710FFFFF796FAFFF7CEFAD4
:102AD000F6E70000474F0000810A00089D0A000841
:102AE0002DE9F05F05460E463001FDF798FC814662
:102AF000344905FB01F0FDF792FC82464946FDF79B
:102B0000E1FB07463846FDF78FFC84B22046FDF70F
:102B100086FC83463946FDF7A0FB82464FF0834191
:102B2000FDF79EFB8146FDF77FFC80464FF6FF7068
:102B300000EA041404EB080084B22348806940F0E2
:102B40000400214988610846806940F4804088611A
:102B50001E48006820F47F601C4908600846006831
:102B600040F40B6008601848C06840F48040164983
:102B7000C8600846C06820F48040C86014480480DB
:102B8000001D008842F20C0108431149091D08800C
:102B9000084600884FF6FF5108400D49091D08807E
:102BA0000846008840F02000088030210948017064
:102BB0000948006840F020004FF0E021C1F804010E
:102BC000BDE8F09F40420F000010024004080140A1
:102BD0000838014025E400E004E100E02DE9F05F61
:102BE00005460E463001FDF71AFC81462B4905FBD0
:102BF00001F0FDF714FC82464946FDF763FB0746EA
:102C00003846FDF711FC84B22046FDF708FC8346E8
:102C10003946FDF722FB82464FF08341FDF720FB4A
:102C20008146FDF701FC80464FF6FF7000EA041470
:102C300004EB080084B21A48806940F00400184987
:102C400088610846C06940F40030C86115480068D2
:102C500020F47F40134908600846006840F40B40A8
:102C600008600F48006940F400300D4908610846CB
:102C7000006920F4003008610B480480001D0088C2
:102C800042F20C0108430849091D088008460088E3
:102C900040F020000880BDE8F09F000040420F0097
:102CA0000010024000080140084400400021034A8F
:102CB00042F8301002EBC00251607047D40500208A
:102CC000034B43F8301003EBC0035A607047000019
:102CD000D405002010B5002419E00E4850F8340047
:102CE00098B10C4850F83400401E0A4941F83400AD
:102CF000084600EBC400406838B1084650F834007C
:102D000018B901EBC40148688047601CC4B20B2CA1
:102D1000E3DB10BDD405002000B5002208E0002050
:102D2000064941F8320001EBC2014860501CC2B2B2
:102D30000B2AF4DBFEF7DEF900BD0000D40500200D
:102D400070B504460D46FEF7A5F8A220FEF73AF846
:102D500000BFFEF77BF90028FBD02012FEF732F807
:102D600000BFFEF773F90028FBD0E0B2FEF72AF8A7
:102D700000BFFEF76BF90028FBD02846FEF722F8CB
:102D800000BFFEF763F90028FBD0FEF7CFF870BD57
:102D900070B505460C46FEF77DF8D020FEF712F818
:102DA00000BFFEF703F90028FBD12846FEF70AF81A
:102DB00000BFFEF7FBF80028FBD12046FEF702F823
:102DC00000BFFEF7F3F80028FBD1FEF7AFF870BDA7
:102DD000E8E8E81761030D000C18402001FFFFFF31
:102DE000FFFFFF003C3C3C5A300010000000000098
:102DF0003C3C3C5A3000100000000000120004026D
:102E00000000001347ED00003C3C3C5A300010002D
:102E100000000000FFFF0201020000003C2E00083D
:102E2000000000205C000000F0200008982E000840
:102E30005C000020D4090000002100080000000010
:102E40000100000000000000000100001000000070
:102E500000000000000000000000E8E8E81761033F
:102E60000D0009D8400001E8E8E81700030300025C
:102E70000B0013E90000006000003000600000015A
:102E80000203040506070000000000000000000027
:082E900000000000000000003A
:0400000508000131BD
:00000001FF
